:020000040800F2
:1000000080650020310300088B36000801340008A9
:1000100089360008B10A00084D59000800000000A8
:100020000000000000000000000000007102000855
:10003000E50B000800000000CD020008A938000808
:100040004B0300084B0300084B0300084B03000858
:100050004B0300084B0300084B0300084B03000848
:100060004B0300084B0300084B0300084B03000838
:100070004B0300084B030008290B00084B03000842
:100080004B0300084B0300084B0300084B03000818
:100090004B0300084B0300084B0300084B03000808
:1000A0004B030008813900084B0300084B0300088C
:1000B0004B0300088D3900084B0300084B03000870
:1000C0004B0300084B0300084B0300084B030008D8
:1000D0004B0300084B0300084B030008853D000854
:1000E0004B0300084B0300084B0300084B030008B8
:1000F0004B0300084B0300084B0300084B030008A8
:100100004B0300084B0300084B0300084B03000897
:100110004B0300084B0300084B0300084B03000887
:10012000350B00084B0300084B0300084B03000885
:100130004B0300084B0300084B0300084B03000867
:100140004B0300084B0300084B0300088D360008E2
:100150004B0300084B0300084B0300084B03000847
:100160004B0300084B0300084B0300084B03000837
:100170004B0300084B0300084B030008000000007D
:100180004B0300084B03000800F002F800F061F890
:100190000AA090E8000C82448344AAF10107DA45E2
:1001A00001D100F056F8AFF2090EBAE80F0013F0D3
:1001B000010F18BFFB1A43F0010318472C6400001D
:1001C0004C6400000A444FF0000C10F8013B13F09F
:1001D000070408BF10F8014B1D1108BF10F8015BA0
:1001E000641E05D010F8016B641E01F8016BF9D193
:1001F00013F0080F1EBF10F8014BAD1C0C1B09D1EA
:100200006D1E58BF01F801CBFAD505E014F8016B5B
:1002100001F8016B6D1EF9D59142D6D370470000ED
:100220000023002400250026103A28BF78C1FBD8FF
:10023000520728BF30C148BF0B607047642900F0E7
:100240005181002070471FB506F09AF91FBD10B507
:1002500010BD00F018FB1146FFF7F5FF05F08EFB0F
:1002600000F036FB03B4FFF7F2FF03BC00F03EFBE7
:100270002C4B19680868B0E8F04F80F30988BFF389
:100280006F8F4FF0000080F311887047000000006E
:1002900008480068006880F308884FF0000080F389
:1002A000148862B661B6BFF34F8FBFF36F8F00DF64
:1002B00000BF00BF08ED00E0DFF80C00016841F46A
:1002C00070010160704700BF88ED00E0EFF3098026
:1002D000BFF36F8F134B1A681EF0100F08BF20ED8D
:1002E000108A20E9F04F106009B44FF0500080F3FD
:1002F0001188BFF34F8FBFF36F8F05F079FF4FF079
:10030000000080F3118809BC19680868B0E8F04F54
:100310001EF0100F08BFB0EC108A80F30988BFF3FD
:100320006F8F704778000020EFF305807047000062
:100330000948804709480047FEE7FEE7FEE7FEE779
:10034000FEE7FEE7FEE7FEE7FEE7FEE704480549B5
:10035000054A064B70470000713900088901000802
:10036000805F002080650020806100208061002087
:1003700053EA020C00F069802DE9F04B4FF00006C3
:10038000002B1FBFB3FA83F503FA05F424FA05F630
:100390005E4012BF1643B2FA82F502FA05F4C5F1C7
:1003A00020051EBF22FA05FC44EA0C04203556EA5B
:1003B000044C4FEA144418BF641C4FF000084FF07F
:1003C0000009904271EB030C39D3002919BFB1FA2F
:1003D00081F701FA07F6B0FA80F700FA07F6C7F1DD
:1003E00020071EBF20FA07FC46EA0C062037B6FBA2
:1003F000F4FCA7EB0507103F07F01F0BCBF120061D
:100400000CFA0BFB2CFA06F644BFB3460026202F4D
:10041000A4BF5E464FF0000B5BEA060C08BF4FF02E
:10042000010B19EB0B09ABFB027C48EB0608C01B68
:1004300006FB02CC0BFB03CC71EB0C01C1E70B46B6
:10044000024641464846BDE8F08B13B54FF0000028
:100450004FF00001AFF30080BDE81C407047000082
:100460000FB41CB50C0007AA009001D02044401E18
:10047000074B7B4469460190069800F0E4F9002C94
:1004800003D06946002000F0F1F91CBC5DF814FBB4
:100490000104000070B5044685690068C10601D5F5
:1004A000302600E02026C00707D070BDD4E9012126
:1004B00030469047206A401C20626D1EF6D570BD04
:1004C00070B5044685690078C00707D170BDD4E9CE
:1004D000012120209047206A401C20626D1EF6D525
:1004E00070BD00002DE9F041064600241068752912
:1004F000314616A510D0AFF30080002802DA404242
:1005000013A507E031688A0701D512A502E0490763
:1005100004D511A5012401E0AFF3008000210A22D7
:1005200006F1240709E0B0FBF2FCB0FBF2F302FB9A
:100530001C00303078541846491C0028F3D123465B
:100540002A463046BDE8F04100F01FB90000000027
:100550002D0000002B000000200000002DE9F05FBE
:10056000894604464FF0000ADFF824B1FB44C0F886
:1005700020A02046E168884700287DD0252806D0A5
:10058000D4E901219047206A401C2062F1E7002550
:100590005F462046E16888472028064607DB312E63
:1005A00005D2B81910F8200C08B10543F1E7A807E7
:1005B00001D525F00405C4F81CA00027C4F818A034
:1005C0002A2E09D0304605F0D2F938B304EB87085B
:1005D000303EC8F8186019E059F8041B204604EBB7
:1005E00087029161E1688847012F064618D1E069CA
:1005F000002820DA25F020051DE0D8F8180000EBCF
:10060000800006EB40003038C8F818002046E1684A
:100610008847064605F0ABF90028EED1012F0AD035
:100620002E2E08D12046E16888477F1C0646022FFF
:1006300045F02005C4DBA069002803DA404245F0FC
:100640000105A061E80701D025F01005A6B1A6F1CB
:100650004100192802D8203645F400654A46314643
:10066000204625604D46FFF7E9FD60B1012807D01F
:10067000ED1D25F0070000E007E000F1080978E72C
:1006800005F1040975E730467AE7206ABDE8F09F76
:100690005860000010B5431C02E010F8011B71B156
:1006A0008107FAD14FF0013202C88C1A8C4314EA48
:1006B000C211F9D0C01A0A0603D0C01E10BDC01A5C
:1006C00010BD0A0401D0801E10BD0902FCD0401EDE
:1006D00010BD10B5203AC0F00B80B1E81850203A98
:1006E000A0E81850B1E81850A0E81850BFF4F5AFD2
:1006F0005FEA027C24BFB1E81850A0E8185044BF5C
:1007000018C918C0BDE810405FEA827C24BF51F8C8
:10071000043B40F8043B08BF7047D20728BF31F8BC
:10072000023B48BF11F8012B28BF20F8023B48BF0D
:1007300000F8012B70474FF0000200B513469446B5
:100740009646203922BFA0E80C50A0E80C50B1F129
:100750002001BFF4F7AF090728BFA0E80C5048BF3D
:100760000CC05DF804EB890028BF40F8042B08BFDB
:10077000704748BF20F8022B11F0804F18BF00F8D7
:10078000012B70477047704770472DE9F0470D46C1
:1007900099469246044600F124080168880604D56B
:1007A000E06921F01001216000E00120A84201DD94
:1007B000471B00E00027A1697A1902EB0900081A1B
:1007C000A0612078C00602D42046FFF763FE002611
:1007D00008E0D4E901211AF806009047206A401C7D
:1007E000761C20624E45F4DB2078C0060AD52046F0
:1007F000FFF750FE06E0D4E9012130209047206A3F
:10080000401C2062381EA7F10107F4DC07E0D4E9A0
:10081000012118F805009047206A401C2062281E1C
:10082000A5F10105F3DC2046FFF74AFE207800061B
:1008300002D50220BDE8F0870120FBE701694A1CD0
:1008400002610878704700B58FB0CDE90131002111
:10085000059105497944CDE9031011466846FFF733
:100860007DFE0FB000BD0000E5FFFFFF0A6802F843
:10087000010B0A607047D1E900239A4202D2531C4F
:100880000B6010707047754600F02CF8AE460500FE
:100890006946534620F00700854618B020B5FFF79B
:1008A00055FDBDE820404FF000064FF000074FF027
:1008B00000084FF0000B21F00701AC46ACE8C0097E
:1008C000ACE8C009ACE8C009ACE8C0098D46704787
:1008D00010B50446AFF300802046BDE81040FFF796
:1008E000C1BC000000487047205F0020014918206B
:1008F000ABBEFEE726000200704710B50146806BD4
:10090000026C12F0500F05D0026CD20626D500F012
:1009100015FA10BD016C41F40071016401688A6828
:1009200012F0405F17D1027EAAB9CA6A12F4700FA2
:1009300002D08A6852050ED44A6822F020024A602A
:10094000016C21F480710164016CC90403D4016C51
:1009500041F00101016400F0EFF910BD806BC26C41
:10096000BDE810400846104710B5806B4021016477
:10097000416C41F00401416400F0E0F910BD10B594
:10098000806B00F0DAF910BD464910B54A6822F4D0
:1009900040324A604A6843681A434A6001684A68BC
:1009A00022F480724A6001684A68036942EA0322BD
:1009B0004A6001684A6822F040724A6001684A68E9
:1009C00083681A434A6001688A6822F400628A6078
:1009D00001688A68C3681A438A60816A6FF070622E
:1009E000D14201688A6822F070628A6001688A6870
:1009F0000CD0836A1A438A6001688A6822F04052E8
:100A00008A6001688A68C36A1A4301E022F0405292
:100A10008A6001688A6822F002028A6001688A6836
:100A2000037E42EA43028A6090F8201000290168A0
:100A30004A680FD042F400624A6001684A6822F4B2
:100A400060424A6001684A68174C436A04EB4333CA
:100A50001A4301E022F400624A600168CA6A22F483
:100A60007002CA620168CA6A838B104C04EB03539C
:100A70001A43CA6201688A6822F400728A600168B7
:100A80008A6890F8303042EA43228A6001688A68B6
:100A900022F480628A6001688A68406942EA8020A4
:100AA000886010BD0023014000E0FFFF0000F0FF60
:100AB000FEE70020704700207047000010B50022BC
:100AC0000449054803F044FB0449034803F033FBA1
:100AD000002010BD0413002028060020040B002075
:100AE00010B50146034803F026FB024803F0FCFA68
:100AF000002010BD2806002000207047094A10B5CC
:100B0000D2F8BC22D2F814220AB1012010BD0A4644
:100B10000146044803F01CFBBDE81040014803F007
:100B200091BB000028060020014800F085BA0000B3
:100B30002C030020014800F07FBA0000CC02002006
:100B400001681823CAB2103AB2FBF3F2054B6FF3F7
:100B50000901032A9B5CC36500D9091D816508460C
:100B600070470000A865000810B5014600208B6999
:100B70008A6A4FF0C07453B1B3F5005F15D072B1FB
:100B8000012A0CD0022A0AD0032A09D104E01AB1A2
:100B9000012A06D0022A03D1C96AC90100D5012061
:100BA00010BDC96AA142FAD010BD002AF7D0012AAF
:100BB000F2D0022AF3D0032AF3D010BD30B5046876
:100BC000256825F480252560046863608368402BD0
:100BD000036803D099600068C26030BD9A60006805
:100BE000C16030BD704772B6FEE7000078B50024E2
:100BF000009490F83C20012A19D0012280F83C2072
:100C00000A6807230568092A13D9EE680A3A02EB35
:100C1000420293409E43EE600B788A680A3B03EBE6
:100C200043039A400368DD682A43DA6010E002203B
:100C300078BD2E6902EB420293409E432E610B78F1
:100C40008A6803EB43039A4003681D692A431A61CB
:100C50004A681F23072A13D205686E6B521E02EBE7
:100C6000820293409E436E630B790A885B1E92B2A8
:100C700003EB83039A4003685D6B2A435A6327E0C2
:100C800005680D2A12D22E6BD21F02EB820293400E
:100C90009E432E630B790A88DB1F92B203EB83031A
:100CA0009A4003681D6B2A431A6311E0EE6A0D3AFD
:100CB00002EB820293409E43EE620B790A880D3B61
:100CC00092B203EB83039A400368DD6A2A43DA6237
:100CD000164B0568144A9D4206D10D68122D03D1AA
:100CE000556845F48005556005689D4218D10B682C
:100CF000102B01D0112B13D1536843F40003536020
:100D0000096810290CD10A490A4A0968B1FBF2F1B5
:100D100001EB8101490000E0491E00910029FBD14F
:100D200080F83C40002078BD0023014000200140B5
:100D30007400002040420F0070477047704770B544
:100D400004004FF0000503D0206C002610B107E02E
:100D5000012070BD204600F01DF8666484F83C60F8
:100D6000206CC00610D4206C20F4885040F00200A3
:100D700020642046FFF708FE6664206C20F0020025
:100D800040F00100206400E0012584F83C60284622
:100D900070BD000070B586B0064614216846FFF7A6
:100DA000CAFC1D493068884234D11C4800250168BE
:100DB00041F480710160006800F48070059017486C
:100DC0001438016841F0010101600068694600F0D3
:100DD000010005900E2000900320CDE90105104888
:100DE00000F0AEFA104C0F48C4E900050015A560EC
:100DF000C4E90350400060618000A0614011C4E973
:100E000007052046656200F0E7F908B1FFF7EBFE41
:100E1000B463A66306B070BD0020014044380240B0
:100E20000000024010640240CC020020F8B50446E5
:100E300000200E46009094F83C10012907D00121B3
:100E400084F83C1021688B68DB0702D011E0022097
:100E5000F8BD8B6843F001038B604049404B096843
:100E6000B1FBF3F101EB410100E0491E00910029C3
:100E7000FBD121688B68DB0503D58B6823F4807375
:100E80008B6021688B68DB075DD0236C40F20165C5
:100E9000AB4343F4807323644968490505D5216C4D
:100EA00021F4005141F480512164216CC90404D51E
:100EB000616C21F00601616400E0606484F83C002C
:100EC000A16B2948274DC863A16B28480864A16B12
:100ED0002748C86421686FF02200086020684168D4
:100EE00041F0806141602068816841F480718160D7
:100EF0002168134632464C31A06B00F0D7F9686880
:100F00001C49C006206806D0884224D1816811F0AF
:100F1000405F13D01FE08842F8D0174A904203D1B7
:100F2000D1F80423D206F1D0144A904213D1D1F85B
:100F3000041301F01F011029E8D30CE0816841F08F
:100F40008041816007E0206C40F010002064606CFC
:100F500040F0010060640020F8BD00007400002033
:100F600040420F0000230140FB0800087F090008F1
:100F700069090008002001400021014000220140D1
:100F80002DE9F0410446876D00F0E0FA064694F83A
:100F900035000025022806D08020606584F8345092
:100FA0000120BDE8F0812068016821F01601016090
:100FB0002068416921F080014161206C08B9A06C72
:100FC00020B12068016821F00801016020680168F3
:100FD00021F0010101600CE000F0B8FA801B052847
:100FE00007D920206065032084F8350084F8345048
:100FF000D7E720680068C007EED194F85C103F2066
:101000008840B860012084F8350084F8345000200E
:10101000C7E790F83510022903D0802141650120EF
:101020007047052180F835100068016821F0010142
:1010300001600020704700002DE9F84304464FF09E
:101040000009CDF8009063484FF41651A56D006873
:10105000B0FBF1F72E6894F85C10082000FA01F15B
:1010600031420FD021680A6852070BD50A6822F076
:1010700004020A6094F85C108840A860606D40F03B
:101080000100606594F85C104FF0010808FA01F067
:10109000304208D021684969090604D5A860606D0E
:1010A00040F00200606594F85C10042088403042F3
:1010B00008D021680968890704D5A860606D40F0F0
:1010C0000400606594F85C1010208840304218D00D
:1010D00021680968090714D5A860206801684903D8
:1010E00004D50068000308D5A16C07E00168C905B4
:1010F00003D4016821F008010160216C09B1204688
:10110000884794F85C1020208840304231D0216814
:101110000968C9062DD5A86094F83500052820680F
:10112000016806D0490347D5006800031DD4616CEF
:101130001CE021F0160101602068416921F0800166
:101140004161206C08B9A06C20B12068016821F0D1
:101150000801016094F85C103F208840A86084F882
:10116000358084F83490216D1FE0E16B09B1204691
:101170008847606D00282BD0606DC00714D0052013
:1011800084F835002068016821F0010101600098B1
:10119000401C0090B84203D820680068C007F6D110
:1011A00084F8358084F83490E16C002910D001B0C7
:1011B0002046BDE8F04308470168C905D5D4016859
:1011C00021F01001016084F8358084F83490CCE778
:1011D000BDE8F883740000202DE9F041044600F0DA
:1011E000B5F906465CB1022084F83500002584F884
:1011F00034502068016821F0010101600DE00120F8
:10120000BDE8F08100F0A2F9801B052805D9202057
:101210006065032084F83500F2E720680068C007A5
:10122000F0D12268116820480140D4E90103184335
:10123000D4E903363343184363691843A369184359
:10124000E3691843236A18430843616A042903D1F8
:10125000D4E90B1319430843106020684069666A9B
:1012600020F0070130460E43012704280CD1A06A64
:101270000643E06A40B12046FFF776FC20B14020EB
:10128000606584F83570BAE7206846612046FFF74C
:1012900057FC94F85C203F2191408160656584F89B
:1012A00035700020ACE700003F8010F02DE9F041E0
:1012B0000446866D90F83400002501280DD00120E9
:1012C00084F8340094F835700020012F07D084F89A
:1012D000340002252846BDE8F0810220FBE7022702
:1012E00084F8357060652046FFF768FC94F85C1060
:1012F0003F208840B0602068016841F0160101601D
:10130000206C20B12068016841F00801016020686C
:10131000016841F001010160DCE7000070B504469E
:1013200000F014F90546601C02D00448007804441B
:1013300000F00CF9401BA042FAD370BD68000020F9
:101340002DE9F84FDFF8BCA10022012503264FF05C
:101350000F090AF1040BAAF1040E00BF0B6805FA8D
:1013600002F42340A34270D10F7907F00307012F45
:1013700001D0022F16D187684FEA420806FA08FC0E
:1013800027EA0C07D1F80CC00CFA08FC4CEA070C51
:10139000C0F808C04768A7430C79C4F30014944010
:1013A0003C4344600C79E443A4070AD0C4684FEA84
:1013B000420C06FA0CF7BC438F6807FA0CF7274378
:1013C000C7600C7904F00304022C12D1D40800EB9E
:1013D000840CDCF820405707FF0E09FA07F824EACE
:1013E0000804D1F8108008FA07F848EA0408CCF895
:1013F000208004684FEA420C06FA0CF7BC430F79D0
:1014000007F0030707FA0CF7274307604C6814F44A
:10141000403F70D03C4C276847F4804727602468E1
:1014200022F0030704F480440094384C07EB040CCA
:10143000DCF8084897074FEA177809FA08F7BC4321
:10144000334FB84202D1002724E054E0314FB84274
:1014500001D101271EE0304FB84201D1022719E027
:101460002E4FB84201D1032714E02D4FB84201D1CD
:1014700004270FE02B4FB84201D105270AE02A4F7D
:10148000B84201D1062705E0284FB84201D107270D
:1014900000E0082707FA08F72743CCF80878DAF8BD
:1014A00000405746D1F804C09C435FEACC2C00D5DD
:1014B0001C433C60DBF800405F46D1F804C09C430D
:1014C0005FEA8C2C00D51C433C60DEF80040774678
:1014D000D1F804C09C435FEA8C3C00D51C433C60BF
:1014E000084F083F3C68D1F804C09C435FEACC3CFD
:1014F00000D51C433C60521C102AFFF42FAFBDE8FE
:10150000F88F0000083C01404438024000300140A0
:10151000000002400004024000080240000C0240AB
:10152000001002400014024000180240001C02405B
:10153000426921EA02030A4043EA0241816170479D
:101540000AB1816170470904FBE700000148806827
:10155000704700006800002070B5040025D094F8A2
:101560003D00002520B984F83C50204600F0B8F832
:10157000242084F83D002068016821F00101016009
:101580002068016841F4004101602068016821F48D
:101590000041016001F03AF84D4A6168914201D87A
:1015A0004C4900E04C49884201D2012070BD4B49B2
:1015B0002368B0FBF1F15E6826F03F060E435E60E3
:1015C0006368934206D94FF4967359434FF47A7384
:1015D000B1FBF3F12368491C1E6A26F03F06314334
:1015E00019626168914210D84900401EB0FBF1F2C7
:1015F000521CC2F30B02042A01D2042022E0B0FBE9
:10160000F1F0401CC0F30B001CE0A268F2B301EB48
:10161000C10303EB0116431EB3FBF6F35B1C43F45B
:1016200080431B0549D092B301EBC10202EB0111CB
:10163000401EB0FBF1F0401CC0F30B0040F48040B2
:1016400040F400402168CA694CF6FF739A43104386
:10165000C861D4E9071001432068026822F0C00283
:1016600011430160D4E9030101432068826848F214
:10167000FF339A4311438160D4E90501084321688F
:10168000CA6822F0FF021043C86001E00EE016E0D5
:101690002068016841F0010101602564202084F880
:1016A0003D00256384F83E50002070BD01EB4106EB
:1016B000431EB3FBF6F35B1CB3E70120C2E701EB6B
:1016C0004101401EB0FBF1F0401CC0F30B00B7E736
:1016D000A086010080841E0000093D0040420F00EA
:1016E00010B586B0044614216846FFF724F8134964
:1016F0002068884220D112480021026842F002028C
:101700000260006800F002000590C02000901220E6
:10171000CDE90101032003900420049069460948A3
:10172000FFF70EFE06481030016841F40011016019
:10173000006800F40010059006B010BD0054004091
:1017400030380240000402400248816802781144A7
:1017500081607047680000200B4810B5016841F4B3
:1017600000710160016841F480610160016841F429
:1017700080710160032000F09FF80F2000F006F850
:1017800000F050F8002010BD003C024030B5054686
:101790001F4887B00024016841F002010160006821
:1017A00006A900F00200009001A800F009FF0498CB
:1017B000A8B100F02BFF40001649174AB0FBF1F129
:1017C0001648491E026040F2E732C0E90324C0E92E
:1017D0000114846101F094FA040003D015E000F0D4
:1017E00015FFE9E70D4801F0D7FA04000DD11D20DF
:1017F00000F034F8102D07D2002229461D2000F0F9
:101800003BF80748056000E0012407B0204630BDE2
:101810004038024040420F0000040040E005002034
:101820006C0000200C4882B0016841F480410160E6
:10183000006800F4804000900748001F016841F0F4
:10184000805101600068002200F0805000900F215C
:10185000901E02B000F010B844380240002809DBA6
:1018600000F01F02012191404009800000F1E020BA
:10187000C0F8001170470000F0B40E4B1B680C4616
:10188000C3F30223C3F10705042D00D90425191D54
:10189000072901D2002300E0DB1E012606FA05F12C
:1018A000491E214099409E40761E16403143F0BCAF
:1018B00004F04DB80CED00E0064900F0070208689E
:1018C0004FF6FF03184040EA0220034A1043086025
:1018D000704700000CED00E00000FA05704700685A
:1018E000416200207047F0B50368586A39B19C6ABC
:1018F0004FF4827600EB144400204D1E0AE040EACB
:10190000024098620FE006EB8007DF59401C04EBB1
:101910001744C0B2A842F6D344EA02404FF48072A2
:1019200002EB810158500020F0BDD0F8080502F00C
:101930000FBF01EBC10200EB8202D0F80805D26CA8
:1019400002F064BE01EBC10200EB8202D0F8080590
:10195000D2F88C2202F0B5BED0F8080502F0FABE2B
:101960000A0601F00F0101EBC10100EB810101D575
:101970003C3101E001F51F71006803F02FBE70B526
:1019800004460B0601F00F0000EBC00104EB8101DF
:101990004FF001024FF0000503D581F83D203C31A6
:1019A00003E081F87D5201F51F71087094F8BC04C2
:1019B000012808D084F8BC24206803F0C9FA84F810
:1019C000BC54002070BD022070BD70B5044601F00B
:1019D0000F006268904201D9012070BD0B0601F032
:1019E0000F0101EBC10104EB81014FF001024FF047
:1019F000000503D581F83D203C3103E081F87D529C
:101A000001F51F718D70087094F8BC04012808D08E
:101A100084F8BC24206803F097FC84F8BC540020B0
:101A200070BD022070BD01F00F0101EBC10100EBA0
:101A30008100D0F89C0270472DE9F04104460F0662
:101A400001F00F0000EBC00104EB81014FF0010633
:101A50004FF0000503D581F83D603C3103E081F88B
:101A60007D5201F51F710870CA600B714A7802B18E
:101A70000881022B00D14D7194F8BC04012809D0D3
:101A800084F8BC64206803F0BBF9284684F8BC5491
:101A9000BDE8F0810220FBE770B50C4601F00F05B0
:101AA00005EBC50100EB8101C1F89432C1F88C222D
:101AB0000023C1F89C3281F87D3281F87C520369A1
:101AC00001F51F71012B00D14A612207027C0068D9
:101AD00003D003F091FC002070BD03F07BFBFAE71C
:101AE00070B504460D4601F00F006168884201D9C7
:101AF000012070BD29064FF000064FF0010207D506
:101B000000EBC00104EB810181F83D203C3107E08E
:101B100005EBC50104EB810181F87D6201F51F71C0
:101B20008A70087094F8BC04012807D084F8BC249B
:101B3000206803F035FC280702D007E0022070BDC2
:101B4000217C04F2C442206803F0D2FB84F8BC6418
:101B5000002070BD70B50C4601F00F0505EBC50106
:101B600000EB81014B65CA640023CB65012381F83A
:101B70003D3001F83C5F0369012B00D14A61220727
:101B8000027C006803D003F037FC002070BD03F036
:101B900021FBFAE72DE9FC5F05680446284603F0BF
:101BA000BEFD00287DD1206803F0E5FD002878D037
:101BB000D5F80808C0F30D20C4F8FC04206803F031
:101BC000DAFD800704D52068416901F00201416116
:101BD000206803F0D0FDC10604F2C440009034D563
:101BE0002068816921F0100181612F6A07F00F00E0
:101BF00000EBC00004EB8006C7F3434006F51F76F8
:101C0000022802D0062811D01AE047F6F0700742E9
:101C100016D0C7F30A1217462846316903F0AFFD04
:101C2000306938443061306A384408E00822284678
:101C3000009903F0A4FD306AC7F30A11084430622A
:101C40002068816941F010018161206803F093FDF3
:101C500000034FF0080B4FF0000A4FF001097CD54C
:101C60000026206803F066FD074674E0F80770D090
:101C7000F1B2206803F077FD8046C00707D005EB7E
:101C80004611C1F8089B3146204601F005FD5FEA88
:101C9000087024D505EB4611C1F808BB2068016C1B
:101CA00000E025E200EB46100191D0F8082BFC4B38
:101CB000994205D9110403D54FF40041C0F8081B1F
:101CC000204600F005FBF6490198884207D92069B3
:101CD000012804D120680121009A03F009FB5FEA82
:101CE000C86004D505EB46111020C1F8080B5FEA67
:101CF00088701DD56869000605D5D5F8040840F43C
:101D00008061C5F8041806EBC60004EB800090F86B
:101D10007F1200F51F70012905D180F803A0F1B2F0
:101D2000204600F0EBF905EB46110220C1F8080B44
:101D30005FEA886004D505EB46102021C0F8081B37
:101D40005FEA884005D505EB46104FF40051C0F816
:101D5000081B7F08761C002F88D1206803F00BFD3C
:101D600040036FD5206803F0DEFC0746002667E0DD
:101D7000F80763D0F1B2206803F0E3FC8046C007A7
:101D800023D006F00F0209FA02F0D5F83428824376
:101D9000C5F8342805EB4610C0F8089920690128D9
:101DA0000FD106EBC60004EB8000D0E912211144EC
:101DB000C16436B9606D20B920680121009A03F032
:101DC00097FAF1B22046FFF7B4FD5FEA087003D539
:101DD00005EB4611C1F808B95FEAC86004D505EB08
:101DE00046111020C1F808095FEA486004D505EBE8
:101DF00046104021C0F808195FEA887017D53146AF
:101E0000284603F05FFC06EBC60004EB800090F868
:101E10003F103C30012905D180F803A0F1B22046E3
:101E200000F068F905EB46110220C1F808095FEAE5
:101E3000086003D53146204601F094FC7F08761CEB
:101E4000002F95D1206803F096FC002811DAD5F810
:101E5000040820F00101C5F8041894F8F4040128DE
:101E60002BD0204600F018FA2068416901F00041AB
:101E70004161206803F07FFC00050BD5D5F8080808
:101E8000C00702D0204600F04BFA2068416901F4F7
:101E900000614161206803F06EFCC00466D5D5F88E
:101EA000040820F00100C5F804081021206803F0A0
:101EB00009FC00214FF67F321FE084F8F4A40021D2
:101EC0002046FFF70BFDCFE705EB4110C0F80829CE
:101ED000D0F8003923F40013C0F80039C0F8082BFB
:101EE000D0F8003B23F40013C0F8003BD0F8003BCF
:101EF00043F00063C0F8003B491C60688842E3D8A7
:101F0000D5F81C0840F00111C5F81C18206B0028FA
:101F100028460DD0D0F8840840F00B01C5F884188D
:101F2000D5F8440840F00B012846C5F844180DE0E8
:101F3000D0F8140842F22B010843C5F81408D5F86C
:101F4000100840F00B012846C5F81018D0F800081A
:101F500020F4FE61C5F80018217C2068009A03F087
:101F6000C7F92068416901F480514161206803F09C
:101F700002FC800415D5206802F082FF206803F07F
:101F8000C1FBE06000F03CFB0146227B206803F0CF
:101F900055FC204600F06AF92068416901F40051BF
:101FA0004161206803F0E7FB000707D5204600F0F9
:101FB00077F92068416901F008014161206803F068
:101FC000DAFB000616D5A86920F08000A86101267A
:101FD0000DE000BF06EBC60004EB800090F87F0226
:101FE000012803D1F1B22046FFF7BAFC761C6068E5
:101FF000B042EFD8206803F0BEFBC00221D5012615
:102000004F4616E005EB4610D0F8001906EBC60067
:1020100004EB800090F84020012A09D1002907DA5A
:1020200080F83F70F0B240F080012046FFF798FC46
:10203000761C6068B042E5D82068416901F48011DF
:102040004161206803F097FB800234D501204B46A4
:1020500029E000BF05EB4011D1F8001B00EBC002E6
:1020600004EB820696F88022012A1BD1002919DA96
:1020700094F8FC2401F4803102F00102914211D164
:1020800086F87F32A96941F08002AA616969090670
:1020900008D4D5F8040840F40070C5F8040805E039
:1020A0000A30544F401C61688142D3D8206841698E
:1020B00001F400114161206803F05DFB400007D589
:1020C0002046FFF732FC2068416901F08041416100
:1020D000206803F050FB40070AD520684568680770
:1020E00002D52046FFF738FC20684168294341604B
:1020F000BDE8FC9FD0F8080502F080BBD0F80805C9
:1021000002F090BB2DE9F0418AB0040005D094F8AC
:10211000BD042668002520B108E001200AB0BDE812
:10212000F08184F8BC54204600F05EF8032084F867
:10213000BD04F06BC00500D42561206803F044F8AD
:1021400004F11001282288466846FEF7C2FA94E896
:102150000F0002F0A3FE0226C8BB0021206803F096
:102160002DFB002001270EE000EBC00104EB8101F4
:1021700081F83D7001F83C0F08810D71CD600D6153
:10218000401CC0B28D6161688142EDD8002011E031
:1021900000EBC00104EB810181F87D5281F87C02E3
:1021A00081F88052C1F88852C1F88C52401CC0B2EC
:1021B000C1F8945261688142EAD8282241466846B3
:1021C000FEF787FA94E80F0002F044FF10B184F89C
:1021D000BD64A2E784F8385084F8BD74206802F02A
:1021E0002BFF00209AE7000010B586B004461421AA
:1021F0006846FEF7A0FA2068B0F1A04F2FD1194829
:102200000021026842F001020260006800F0010053
:1022100005904FF4C05000900220CDE90101032049
:1022200003900A20049069460F48FFF789F80D488B
:10223000001D016841F0800101600A481430016806
:1022400041F4804101600068002200F48040059064
:1022500005214320FFF710FB4320FFF7FFFA06B0EC
:1022600010BD0000303802400000024070B5044646
:10227000C068012570B1022801D0FEF7B4FC2946E0
:10228000D4F8080502F03CFBD4F80805BDE870401E
:1022900002F0F1BA0025F2E7D0F8080502F019BB08
:1022A000D0F8080502F01FBB10B5044690F8BC0436
:1022B00001280BD0012084F8BC0484F83810206871
:1022C00003F0AAFA002084F8BC0410BD022010BD5F
:1022D000D0F8082500F2C441104602F01DBB10B52D
:1022E0000446006894F8BC14012906D0012184F842
:1022F000BC14A16A012902D008E0022010BDA16926
:10230000012903D0816B41F480318163206803F09F
:10231000B4F9206802F082FE002084F8BC0410BDED
:1023200010B50446D0F8080502F038FB2068D0F854
:10233000001E41F00101C0F8001E206A002804D0F0
:102340000248016841F00601016010BD10ED00E097
:102350002DE9F843054600684FF00109C1074FF029
:10236000000601D1400727D5DFF80C81C8F8686066
:10237000FFF7ECF80746414C05E000BFFFF7E6F831
:10238000C01B022857D820680001F7D46868810173
:10239000287A41EA0070394984310860C8F86890A9
:1023A000FFF7D4F8074604E0FFF7D0F8C01B022877
:1023B00041D820680001F7D52878800752D52F48EA
:1023C0004030016841F08051016000682C4C00F001
:1023D00080500090206840F480702060FFF7B6F8CD
:1023E000074604E0FFF7B2F8C01B022823D8206894
:1023F000C005F7D5214C7034206810F4407020D00F
:10240000A98901F4407181421BD020681D4920F444
:102410004070C1F800900E6020602068C00710D0A6
:10242000FFF794F8064641F2883707E0FFF78EF889
:10243000801BB84202D90320BDE8F88320688007DA
:10244000F4D5E9680D48C1F301220830032A0BD006
:10245000016821F4F81101602068A989C1F30B011A
:10246000084320600020E7E70268074B22F4F812D7
:1024700019400A430260EFE700004742003802407B
:1024800000700040400E4742FFFCFF0F2DE9F0476F
:102490000E46050065D0DFF81481D8F80000F7B2C9
:1024A00000F00700B04207D288F80070D8F80000AA
:1024B00000F00700B04254D128683D4C810712D586
:1024C000400703D5206840F4E050206028780007DA
:1024D00003D5206840F4604020602068A96820F09F
:1024E000F000084320602878C0072DD03049686884
:1024F0000839012812D0022813D0032811D0096806
:10250000890700292DDA216821F0030101432160A8
:10251000FFF71CF8814641F2883A0EE0096889030A
:10252000EFE709688901ECE7FFF710F8A0EB090174
:10253000514502D90320BDE8F0872068696800F0A2
:102540000C00B0EB810FEFD1D8F80010404601F03D
:102550000701B14207D90770006800F00700B042D8
:1025600001D00120E7E72878400705D52068E96811
:1025700020F4E050084320602878000706D5206842
:10258000296920F4604040EAC100206000F05EF854
:102590002168084AC1F30311515CC840064908602C
:1025A00006480068FFF7F2F80020C4E7003C02404C
:1025B00008380240B0650008740000206C0000205C
:1025C0000F2202600C4A136803F003034360136890
:1025D00003F0F0038360136803F4E053C3601268F0
:1025E0004FF4E05303EAD20202610448006800F0AD
:1025F000070008607047000008380240003C0240B5
:102600000148006870470000740000200448054934
:1026100000680968044AC1F38221515CC8407047D0
:102620007400002008380240C065000804480549CD
:1026300000680968044AC1F34231515CC8407047E0
:102640007400002008380240C0650008154810B525
:10265000006810F00C02144813D04110042A0FD067
:10266000082A0ED10F4C241F2268236802F03F0273
:102670005B0207D52068C0F38810A0FB010106E0CB
:10268000084610BD2168C1F38811A1FB0001002399
:10269000FDF76EFE2168C1F30141491C4900B0FB02
:1026A000F1F010BD083802400024F4002DE9F84F85
:1026B00004006ED02078DFF84C93C007A9F1040520
:1026C0004AD009F104000168C1F38101012908D051
:1026D0000068C0F3810002280AD1D9F80000400246
:1026E00006D52868800337D560680028E1D033E03C
:1026F0006068B0F5803F10D0B0F5A02F286810D0EA
:1027000020F480302860286820F4802028606068E9
:10271000A8B1FEF71BFF06460DE0286840F48030A4
:10272000F4E740F480202860F7E700BFFEF70EFFD3
:10273000801B642873D828688003F7D50CE0FEF767
:1027400005FF064605E000BFFEF700FF801B64287A
:10275000F0D828688003F7D42078DFF8AC828007AF
:102760004FF0000A3ED5A748001D016811F00C0F7C
:1027700008D00068C0F3810002280BD1D9F800000E
:10278000400207D42868800716D5E068012800D1E8
:1027900012E033E1E068B8B10120C8F80000FEF7AC
:1027A000D5FE064605E000BFFEF7D0FE801B0228DE
:1027B000C0D828688007F7D52868216920F0F8007C
:1027C00040EAC10028600DE0C8F800A0FEF7BEFE98
:1027D000064604E0FEF7BAFE801B02281FD82868D0
:1027E0008007F7D42078000722D5864F8748616993
:1027F000703771B101210160FEF7A8FE064604E0C2
:10280000FEF7A4FE801B022809D838688007F7D598
:102810000EE0C0F800A0FEF799FE064605E082E053
:10282000FEF794FE801B02287DD838688007F7D415
:102830002078400768D5DFF8CCB100270BF13C0BBE
:10284000DBF80000C0000BD4DBF8001041F0805131
:10285000CBF80010DBF80000012700F0805000905A
:102860006B4E3068C00510D4306840F48070306022
:10287000FEF76CFE009005E0FEF768FE0099401A36
:10288000022850D83068C005F6D55E4EA0686C3678
:1028900001280FD00528306810D020F001003060EA
:1028A000306820F004003060A068B8B1FEF74EFE3A
:1028B00000900FE0306840F00100F4E740F00400C1
:1028C0003060F7E7FEF742FE0099411A41F2883086
:1028D000814266D830688007F4D50EE0FEF736FEF8
:1028E000009007E0FEF732FE0099411A41F288306D
:1028F000814256D830688007F4D42FB1DBF800103D
:1029000021F08051CBF80010A069C8B33D49091DE2
:102910000968C1F3810102294AD00228504607D034
:10292000C8F8600000E03CE0FEF710FE04463BE023
:102930004746C8F86000FEF709FE064605E000BFFE
:10294000FEF704FE801B02282BD828688001F7D4EC
:10295000D4E907010843A16A2E4A490802EB014164
:10296000626A41EA8211084394F82C1040EA01613E
:10297000C9F8001001203866FEF7E8FD044606E0BD
:102980003EE000BFFEF7E2FD001B022809D82868E0
:102990008001F7D534E000BFFEF7D8FD001B022808
:1029A00002D90320BDE8F88F28688001F4D427E01D
:1029B0000128F7D0D9F80000E26900F480019142C3
:1029C0001CD1226A00F03F01914217D147F6C07135
:1029D000626A0140B1EB821F10D1A26A4FF0FF334F
:1029E00000F4403103EB5202B1EB024F06D194F8F0
:1029F0002C1000F07060B0EB016F01D00120D1E726
:102A00000020CFE70438024000004742800E4742D2
:102A1000007000400000FFFF10B5040002D0607F8E
:102A200010B106E0012010BD00202077204600F004
:102A300039F8022060772168CA2048622168532053
:102A40004862204600F0ECFE30BB20688168144AE2
:102A5000114081602168886862681043D4E90423CA
:102A60001A43104388602168E068086120680169A2
:102A7000228941EA02410161204600F0F5FE58B981
:102A800021680A6C22F480220A6421680A6CA36916
:102A90001A430A64012161772268FF21516210BD47
:102AA000BFFF8FFF1FB5002100910191029103919B
:102AB0000068084988420CD102200090000203906F
:102AC0006846FFF745FC08B1FEF78DF80249012082
:102AD00008601FBD002800403C0E474270B5044608
:102AE000007F0B46012819D0012626770220607747
:102AF000B2B19878D97840EA01455878197800023F
:102B000040EA413005432168CA20486221685320C9
:102B10004862204600F084FED0B122E0022070BD61
:102B20005878C10603D500F0EF000A305870D87805
:102B300000F069FE0204587800F065FE42EA0022C7
:102B4000987800F060FE0243187842EA4035DAE7F0
:102B50000748054020684560204600F085FE00B922
:102B600066772268FF2151620021217770BD000045
:102B70003FFFFF002DE9F0410446007F0D4601288C
:102B800023D04FF0010884F81C8002206077206871
:102B9000002780684FEA4060D2B1002800DBEF7068
:102BA000A878297840EA01466878E978000240EA86
:102BB000815006432168CA20486221685320486238
:102BC000204600F02DFEB8B12CE00220BDE8F081D7
:102BD000002800DBEF70287800F015FE020468780A
:102BE00000F011FE42EA0022A87800F00CFE024339
:102BF000E87842EA8056DDE70D4806402068066026
:102C00002068816821F480218160D5E903010843AF
:102C100021688A6810438860204600F025FE08B9C4
:102C200084F81D802268FF2151622777CEE70000DB
:102C30007F7F7F0070B504460068C16821F0A00165
:102C4000C160FEF783FC05464FF47A7607E000BFCB
:102C5000FEF77CFC401BB04201D9032070BD206808
:102C6000C0688006F4D5002070BD70477047000032
:102C700070B590F83C20012A32D0012480F83C4005
:102C8000022280F83D2003685A689D6822F0700691
:102C90000A6832435A60134B02689A4214D0B2F168
:102CA000804F11D0104B9A420ED0104B9A420BD04D
:102CB0000F4B9A4208D00F4B9A4205D00E4B9A42C6
:102CC00002D00E4B9A4204D1496825F08003194383
:102CD000916080F83D40002180F83C10084670BDAE
:102CE000022070BD000001400004004000080040C8
:102CF000000C00400004014000400140001800406A
:102D000010B5040003D094F83D0010B107E0012095
:102D100010BD002084F83C00204600F01FF802207F
:102D200084F83D00211D206800F036FE012084F863
:102D3000460084F83E0084F83F0084F8400084F8A0
:102D4000410084F8420084F8430084F8440084F889
:102D5000450084F83D00002010BD000008B5006863
:102D60000B49884212D10B48016841F00101016012
:102D70000068002200F00100009005211920FEF7F4
:102D80007BFDBDE808401920FEF768BD08BD0000C6
:102D9000000001404438024090F83D10012901D064
:102DA00001207047022180F83D100168CA6842F096
:102DB0000102CA6000681149884214D0B0F1804F06
:102DC00011D00F4988420ED00E4988420BD00E49CF
:102DD000884208D00D49884205D00D49884202D06A
:102DE0000C49884204D1816801F00701062903D00B
:102DF000016841F0010101600020704700000140BE
:102E00000004004000080040000C004000040140A5
:102E1000004001400018004070B5044690F83C00A6
:102E20000025012817D0012684F83C60022084F890
:102E30003D002068826822F0770222F47F4282609F
:102E40000868502838D00DDC20284FD005DC90B31E
:102E5000102811D14AE0022070BD302846D0402809
:102E60000AD13BE060282FD070280DD0B0F5805FEC
:102E700003D0B0F5005F12D0012584F83D6000203A
:102E800084F83C00284670BDCB68D1E90121206858
:102E900000F0E6FD2068816841F0770109E0CB6829
:102EA000D1E90121206800F0DBFD2068816841F450
:102EB00080418160E1E719E0CA684968206800F054
:102EC000E1FD5021206806E0CA684968206800F0EA
:102ED000EAFD6021206800F0CDFDCEE7CA684968B0
:102EE000206800F0CFFD40212068F4E72268014609
:102EF0001046F0E7704770B50446006801694FF06E
:102F00000005C943890715D4C168C943890711D48D
:102F1000E91E016101202077206880698007204632
:102F200002D0FFF7E7FF04E000F098F8204600F039
:102F300096F8257720680169C943490717D4C16805
:102F4000C943490713D46FF00401016102202077BF
:102F50002068806910F4407F204602D0FFF7CAFF46
:102F600004E000F07BF8204600F079F8257720682F
:102F70000169C943090716D4C168C943090712D4B6
:102F80006FF008010161042020772068C069800784
:102F9000204602D0FFF7AEFF04E000F05FF82046C5
:102FA00000F05DF8257720680169C943C90617D488
:102FB000C168C943C90613D46FF01001016108202C
:102FC00020772068C06910F4407F204602D0FFF7C8
:102FD00091FF04E000F042F8204600F040F8257729
:102FE00020680169C943C90708D1C168C943C90735
:102FF00004D1891E0161204600F032F82068016981
:10300000C943090609D4C168C943090605D46FF04C
:10301000800101612046FFF728FE20680169C9434D
:10302000490609D4C168C943490605D46FF0400177
:103030000161204600F01EF820680169C943890635
:103040000BD4C168C943890607D46FF02001016120
:103050002046BDE87040FFF709BE70BD704770475D
:1030600000680349884201D1FEF76EBB704700003B
:10307000000400407047704770470000F8B50168D1
:1030800004460868CA684B6910F00F0F4FF000053E
:1030900059D003F0010602F49077374365D0C10799
:1030A00005D0D10503D5216C41F001012164410710
:1030B00005D5D90703D0216C41F0020121648107B5
:1030C00005D5D90703D0216C41F004012164010723
:1030D00007D502F02001314303D0216C41F00801F3
:1030E0002164216C00293AD0800604D5900602D5CF
:1030F000204600F060FD20684069216CC0F380101C
:10310000090700D460B3204600F02EFD2068406916
:10311000400621D52068143050E8001F21F04001FE
:1031200040E80012002AF5D1A06BA8B16C490165F6
:10313000A06BFDF76EFF002811D0A06B016D01B0F0
:10314000BDE8F040084783060FD593060DD520460D
:10315000BDE8F84000F02FBD2046FFF78DFFF8BD19
:103160002046FFF789FF2564F8BD266B2023012E3A
:1031700079D1C60677D5D60675D508684868009017
:103180004869400640D5A16B086840680004000CFF
:10319000EAD0A28D8242E7D9E085C869B0F5807F88
:1031A0002DD020680C3050E8001F21F4807140E8D9
:1031B0000012002AF5D12068143050E8001F21F0D9
:1031C000010140E80012002AF5D12068143050E8CF
:1031D000001F21F0400140E80012002AF5D184F8D8
:1031E0003E30256320680C3050E8001F21F01001AC
:1031F00040E80012002AF5D1A06BFDF7C1FEA08DBA
:10320000E18D401A81B229E0A08DE18D401A81B292
:10321000E08D0028A8D00029A6D020680C3050E806
:10322000002F22F4907240E80026002EF5D120688D
:10323000143050E8002F22F0010240E80026002E52
:10324000F5D184F83E30256320680C3050E8002F1B
:1032500022F0100240E80023002BF5D12046FFF7B2
:103260000AFFF8BDFFE705062BD5150629D594F80A
:103270003D002128F5D1A068B0F5805F01D120691B
:10328000B0B1206A411C2162216800784860E08C5E
:10329000401E0004000CE084E3D12068C16821F0E6
:1032A0008001C1602068C16841F04001C160D8E779
:1032B000206A0088C0F308004860206A801C2062F1
:1032C000E5E74006CDD55006CBD5CA68204622F0AA
:1032D0004002CA6084F83D3000F091F8C1E7000078
:1032E000593B000870B5040004D094F83D00002557
:1032F00010B106E0012070BD84F83C50204600F07B
:1033000023F8242084F83D002068C16821F400518E
:10331000C160204600F0B0FC2068016921F49041B2
:1033200001612068416921F02A0141612068C1687A
:1033300041F40051C1602564202084F83D0084F8E8
:103340003E00002070BD000070B586B00646142116
:103350006846FDF7F0F924493068884241D1234896
:103360000025016841F480210160006800F480209C
:1033700005901E481038016841F0020101600068A4
:10338000694600F0020005904FF440600090022072
:10339000CDE9010503200390072004901448FDF7B0
:1033A000CFFF154C134820604FF000606060402054
:1033B000C4E902050001C4E90405A561E5612562CF
:1033C00020466562FDF708FF08B1FDF70CFC746349
:1033D000002205212720A663FEF74EFA2720FEF7DC
:1033E0003DFA06B070BD0000004800404038024081
:1033F00000040240586002402C03002070477047D0
:10340000FEE70000F0B500230A24302537261F46CA
:1034100011E000BFB4EB107F02D905EB107C01E096
:1034200006EB107C01F813C001EB430C00015B1CA0
:103430008CF80170DBB29342ECD3F0BD7FB5002174
:103440001F480091019102911C4A039102600124DE
:103450004FF480320461C0E90121047680F8201025
:10346000184AC0E90A210325C561C16080F83040CF
:103470004461FDF764FC08B172B6FEE706200094D3
:10348000CDE9014069460E48FDF7B0FB08B172B6C0
:10349000FEE702200090019069460948FDF7A6FB6F
:1034A00008B172B6FEE70095694605480195FDF73B
:1034B0009DFB002801D072B6FEE77FBD00200140D1
:1034C000840100200100000F70B586B01421684609
:1034D000FDF731F91A480024016841F080010160CC
:1034E000016801F080010591016841F0010101606E
:1034F000016801F001010591016841F002010160DC
:10350000016801F002010591016841F008010160C4
:1035100000680C4E00F008004FF470450590002242
:1035200029463046FEF70CF801200095CDE901044C
:10353000694630460394FDF703FF06B070BD0000F6
:1035400030380240000C024010B586B014216846A5
:10355000FDF7F1F81B48002419490594C0E900144F
:103560007F218160FF21C0E9031444618461FFF77A
:1035700053FA08B172B6FEE78DF800408DF80140AD
:103580008DF802400394012269460E480494FFF727
:10359000F1FA08B172B6FEE701208DF814008DF83B
:1035A00015008DF8160002468DF8174005A905484C
:1035B000FFF794FA002801D072B6FEE706B010BDFE
:1035C000002800402002002010B586B000241848D2
:1035D00000940194029403940494144905940160A6
:1035E00044F29F11C0E9011440F2E731C0E903142D
:1035F0008021C0E90541FFF783FB08B172B6FEE701
:103600004FF48050009069460948FFF705FC08B167
:1036100072B6FEE7049404A905480594FFF728FB59
:10362000002801D072B6FEE706B010BD00000140D0
:103630004002002010B500220F49104800F0C1FFE1
:1036400008B1FDF7D0FA0E490C4801F0CFF908B1E6
:10365000FDF7C9FA0B49094800F062FD08B1FDF712
:10366000C2FA064801F046FA002803D0BDE810402F
:10367000FDF7B9BA10BD00000400002028060020A4
:103680003801002054000020FEE7FEE70148FEF765
:1036900081BA0000241D00202DE9F04103680D4689
:1036A00004461E6C03EB4511D1F8080BD4F810E06A
:1036B0004FF400474FF0200C04F2C442BEF1010F5A
:1036C00009D0DFF898E0764539D1020432D500BF41
:1036D000C1F8087B3FE0224B5FEA007E04D59E42A2
:1036E00039D90004F4D436E05FEA806E02D5C1F81F
:1036F00008CB30E010F0280F2DD19E4201D90004F4
:10370000E6D405EBC50004EB8000D1F8101BD0F81F
:103710009832C1F31201591AC0F89C1200F51F70BB
:10372000ADB983691BB10269114401610FE0012148
:1037300020680AE080060AD5C1F808CB07E035B951
:10374000D4F8940218B90021184601F0D1FDE9B26D
:103750002046FEF7F7F80020BDE8F0810A31544F0B
:103760000A30544F2DE9F84F0E4601EBC60100EB2D
:10377000810481460568616DE06D3C34884202D960
:103780000120BDE8F88F081AE168814200D208469E
:10379000C01C870805EB46181BE000BFA0EB010A20
:1037A000E068504500D282460AF10300870899F884
:1037B000100000901FFA8AF3F2B22846216902F045
:1037C000B1F8216901EB0A002061216A01EB0A00CE
:1037D0002062D8F8180980B2B84205D3216AA069DE
:1037E000814201D20028D9D1216AA069884208D833
:1037F00006F00F0101208840D5F834188143C5F840
:1038000034180020BDE7002103E0491C0A38C9B282
:10381000C0B20A28F9D2090740EA116070470000D7
:103820002DE9F041044600680025C168490618D416
:10383000C16841F08001C160FDF788FE06464FF483
:103840007A78042707E000BFFDF780FE801B404523
:1038500001D9677701252068C068400601D4002D92
:10386000F2D02846BDE8F08170B504460068002516
:10387000C16821F08001C16020688068800606D49C
:103880002046FFF7D7F910B10420607701252846BC
:1038900070BD0178407841EA00207047FFF7CAFE0A
:1038A000012002F019F9FBE710B5502080F31188D0
:1038B000BFF34F8FBFF36F8F02F09AFD18B1044929
:1038C0004FF080500860002080F3118810BD000088
:1038D00004ED00E030B593B030216846FCF72BFFD3
:1038E00014210CA8FCF727FF1F480025016841F0B0
:1038F00080510160006800F0805011901B48016801
:1039000041F4804101600068022400F4804011907D
:10391000092000904FF4803001900120CDE905048A
:103920008005079004200890A820CDE9090407200D
:103930000B906846FEF7BAFE08B172B6FEE70CA916
:103940000F2081E831004FF4A0500F904FF48050C9
:10395000109005210CA8FEF799FD002801D072B641
:10396000FEE713B030BD0000403802400070004058
:103970000248016841F470010160704788ED00E081
:103980000148FFF7B8BA0000400200200148FFF7E5
:10399000B2BA0000E0050020F0B50268254C264DC3
:1039A000264E274F274B4FF0804CA04209D0604550
:1039B00007D0A84205D0B04203D0B84201D0984207
:1039C00004D122F0700E4A6842EA0E02A0421BD0D7
:1039D000604519D0A84217D0B04215D0B84213D0D4
:1039E000984211D0184DA8420ED0184DA8420BD0C5
:1039F000174DA84208D0174DA84205D0164DA84231
:103A000002D0164DA84203D122F44075CA682A4359
:103A10004D6922F080022A4302608A68C2620A6805
:103A20008262A04201D0984201D10969016301215B
:103A30004161F0BD0000014000040040000800406A
:103A4000000C0040000401400040014000440140DF
:103A50000048014000180040001C004000200040C9
:103A600010B5846842EA032224F47F440A432243C7
:103A7000826010BD826822F070020A4342F00701A2
:103A80008160704710B5036A046A24F0010404627F
:103A9000846924F0F00444EA021423F00A020A4381
:103AA0008461026210BD10B5036A23F01003036243
:103AB0008369046A23F4704343EA023224F0A003CA
:103AC00043EA01118261016210BD000092B00E4C08
:103AD0000E4E4FF480554FF47A776088009023881B
:103AE0000BA2402101A8FCF7BBFC29463046FDF79C
:103AF0001FFD01A8FCF7CEFD014601A8FCF7FEFF63
:103B0000384602F011FBE8E770010020000C02408B
:103B1000414443313A253034642C414443323A2500
:103B2000303464210D0A00000A4C4FF47A75208865
:103B300000EE100AB8EE400A84ED030A608800EE39
:103B4000100A2846B8EE400A84ED040A02F0ECFAA6
:103B5000EDE700007001002010B5806B0021C185E9
:103B6000C184FFF789FA10BD01680C3151E8002FBC
:103B700022F4907241E80023002BF5D10168143142
:103B800051E8002F22F0010241E80023002BF5D17B
:103B9000016B012909D101680C3151E8002F22F095
:103BA000100241E80023002BF5D1202180F83E10BF
:103BB00000210163704708B590F83E10222901D01A
:103BC000022008BD82684FF480539A4201D10169F6
:103BD00021B1816A9A421BD04AB10AE00268816A27
:103BE0005268C2F308020A80816A891C08E00269EF
:103BF00072B10268526802F07F020A70816A491C41
:103C00008162C18D491E0904090CC18503D019E0E8
:103C100002685268F1E70168CA6822F02002CA60AF
:103C20000168CA6822F48072CA6001684A6922F099
:103C300001024A61202180F83E10016B012903D066
:103C4000FFF7DCFB002008BD0021016301680C3197
:103C500051E8002F22F0100241E80023002BF5D19B
:103C600001680A68D20602D50A6849680091818D08
:103C7000FFF701FAE6E7000070B504460068016945
:103C8000E26821F44051114301612169A068E269B1
:103C900008436169114308432168CA6849F20C630B
:103CA0009A430243CA6020684169A26921F44071C5
:103CB0001143416131492068884202D0304988422D
:103CC00002D1FEF7B3FC01E0FEF7A0FCE26900239D
:103CD000192164253226B2F5004F626828D0A0FB76
:103CE0000101930F9200FCF743FB0146B0FBF5F096
:103CF0006FF01802504301EB800006EB0010B0FBA0
:103D0000F5F000F0F002B1FBF5F002EB0012B1FBB0
:103D1000F5F06FF01803584301EB800006EB00103C
:103D2000B0FBF5F000F00F0021681044886070BD12
:103D3000A0FB010192185B41FCF71AFB0146B0FBA6
:103D4000F5F00201B1FBF5F06FF01803584301EBF9
:103D5000800006EBC000B0FBF5F000F0F80002EBCD
:103D60004002B1FBF5F0584301EB800006EBC000C8
:103D7000B0FBF5F000F00700D6E7000000100140AE
:103D8000001401400148FFF779B9000088020020C3
:103D90002DE9F0410C46D0F8D412D0F8C82200EB3F
:103DA0008101D1F8C01229B304F00F0606EB860397
:103DB00000EB83050027AB694BB106EBC60602EBAF
:103DC0008602926CB3FBF2F602FB1632A2B1C1F886
:103DD0001472D0F8D42200EB8200D0F8C402036938
:103DE0002BB1D1F80802224601F504719847002052
:103DF000BDE8F0810320FBE700231A462146AF61AE
:103E000000F0D5FDF3E770B50546D0F8D40205EB18
:103E10008000D0F8C04294B1284600F0AAFCC4F853
:103E20000C02D5F8D412D4F8040205EB8101D1F8C4
:103E3000C412CA6804F503719047002070BD0320C6
:103E400070BD000070B5224D0446297800F0D5FB06
:103E50002878002600F00F0000EB800004EB8000C3
:103E600086846978204600F0C8FB687800F00F006F
:103E700000EB800004EB8000A0F86461A978204684
:103E800000F0BBFBA87800F00F0000EB800004EB13
:103E900080008684C684D4F8D40204EB8000D0F875
:103EA000C01299B1D0F8C40240688047D4F8D40257
:103EB00004EB8000D0F8C00200F09DFFD4F8D402DB
:103EC00004EB8000C0F8C062C4F8BC62002070BD82
:103ED000E400002010B5D0F8D41200EB8100D0F837
:103EE000C04284B1D0F8C41259B194F80002FF283E
:103EF00007D08B6894F8012221469847FF2084F868
:103F00000002002010BD032010BD00000A21018026
:103F100000487047E800002070B5064682210C4832
:103F200000F0FBFA05460121094800F0F6FA0446C4
:103F30008121074800F0F1FA0DB11021A97140214B
:103F400004B1A18000B1818043203080004870BD61
:103F5000F400002070B5064682210D4800F0DDFA1D
:103F6000054601210A4800F0D8FA04468121084894
:103F700000F0D3FA0DB11021A9714FF4007104B112
:103F8000A18000B1818043203080014870BD0000D5
:103F9000F400002070B5064682210C4800F0BDFAFE
:103FA00005460121094800F0B8FA04468121074876
:103FB00000F0B3FA0DB11021A971402104B1A18024
:103FC00000B1818043203080004870BDF4000020A3
:103FD0002DE9F04704464FF40775284600F00CFF22
:103FE00006004FF0000863D02946FCF7A4FBD4F884
:103FF000D4023C4D04EB80004FF01009C0F8C062C1
:10400000C4F8BC62207C4FF4007A0127F0B340234F
:1040100002222978204600F019FC2878402300F07D
:104020000F0000EB800004EB800087840222697897
:10403000204600F00BFC6878082300F00F0000EB2E
:10404000800004EB80000322A0F86471A978204668
:1040500001F00F0101EB810104EB8101A1F8269031
:10406000A97800F0F3FBA87800F00F0000EB8000C7
:1040700004EB80008784C6F80482D4F8D402474653
:1040800004EB8000D0F8C402006800E018E006F5F8
:10409000017680473761776132687AB1207CF8B168
:1040A00040236978204600F0DDFB0020BDE8F08762
:1040B000D4F8D41204EB8101C1F8C0820220F5E7E4
:1040C000534602222978204600F0C0FB2878534648
:1040D00000F00F0000EB800004EB80008784A5E770
:1040E0005346DEE7E400002010B5D0F8D41200EB10
:1040F0008101D1F8C01259B1027C084C002AD1F8D4
:10410000042207D04023617800F0ACFB002010BDF2
:10411000032010BD4FF40073F5E70000E400002019
:1041200039B1D0F8D42200EB8200C0F8C4120020CC
:10413000704703207047D0F8D42200EB8200D0F8FB
:10414000C00218B1C0F80412002070470320704765
:10415000D0F8D43200EB8300D0F8C00228B1C0F808
:104160001022C0F8081200207047032070472DE984
:10417000FC410646D0F8D4020C4606EB8000002134
:10418000D0F8C0728DF80010ADF804100D4637B1AC
:10419000217811F060022FD0202A4BD102E00320B9
:1041A000BDE8FC81E288F2B109060DD5D0F8C40261
:1041B00063783946D0F808C01846E047E288072AF5
:1041C00000D9072239462DE0607887F80002E088A0
:1041D000402800D34020C2B287F801223946304639
:1041E00000F081F82BE0D0F8C402637800228668E2
:1041F00021461846B04722E0607830B101281ED031
:104200000A2809D00B2815D110E096F89C02032843
:1042100010D1022201A905E096F89C02032809D1D9
:1042200001226946304600F078F808E096F89C02D2
:10423000032804D02146304600F04AF803252846DA
:10424000AEE7000010B5D0F8D41200EB8101D1F830
:10425000C02201211AB1D2F8143213B116E00320A2
:1042600010BD0121C2F814120949D2F810320978A0
:1042700001F00F0404EB840400EB8404A361D2F882
:104280001032D2F8082200F092FB0021084610BD3F
:10429000E400002010B5D0F8B822002452689047FE
:1042A00000B10324204610BD002070470020704755
:1042B000134610B50A46002100F0D4FA002010BDC4
:1042C000134610B50A46002100F071FB002010BD16
:1042D00010B50446802100F04FFB2046BDE8104099
:1042E000002100F049BB10B50323C0F89432C0F898
:1042F00058211346C0F85C210A46002100F0B2FAAA
:10430000002010BD10B50521C0F8941200231A46F4
:10431000194600F0A7FA002010BD10B50223C0F81E
:10432000943282611346C2610A46002100F03FFBCD
:10433000002010BD10B50421C0F8941200231A46C5
:10434000194600F034FB002010BD000010B50A46ED
:10435000024903A000F005F9004810BD040900203F
:1043600043444320436F6E66696700001220088053
:10437000004870472400002010B50A46024903A0F7
:1043800000F0EFF8004810BD04090020434443202A
:10439000496E7465726661636500000004200880E0
:1043A000004870472000002010B50A46024903A0CB
:1043B00000F0D7F8004810BD0409002053544D699F
:1043C00063726F656C656374726F6E69637300000E
:1043D00010B50A46024903A000F0C3F8004810BD1A
:1043E0000409002053544D333220566972747561AC
:1043F0006C20436F6D506F727400000010B51A206E
:1044000008800A480168001D0468001D006808183B
:1044100009D008220649FEF7F5FF054904221031AC
:104420002046FEF7EFFF0248801E10BD107AFF1FE6
:104430003A000020F8B504460020ADF80000488896
:104440000D46010A08295FD2DFE801F05E04091772
:104450005E5E3C45D4F8B412207C0A6819E0207CEA
:1044600002260028D4F8B80205D0C16A68468847F9
:104470000146467039E0816AF8E7C0B2062843D2A7
:10448000DFE800F0030A1014181CD4F8B4024268E4
:1044900005E0694690471CE0D4F8B402826892B304
:1044A000207CF6E7D4F8B402C268F8E7D4F8B40286
:1044B0000269F4E7D4F8B4024269F0E7D4F8B40230
:1044C0008269ECE7207CF0B9D4F8B802416B684609
:1044D0008847014609E0207CA8B9D4F8B802016BEE
:1044E00068468847014607204870EA888AB1BDF8C7
:1044F000000040B1824200D90246ADF800202046BB
:10450000FFF70BFFF8BDFFE729462046FFF7E0FE67
:10451000F8E72046FFF70EFFF4E778B50E4642882D
:104520000178002504468A4212D9ADF800100AE04D
:10453000694600F00FF84178052904D181780546D5
:10454000B14205D000256188BDF800209142EFD826
:10455000284678BD0A8803781A440A8001780844FE
:10456000704770B5002300281ED00025044602E0E5
:104570006D1CEDB2641C2678002EF9D1022404EBE8
:10458000450414801278CA545B1C0322CA540024C8
:104590005B1C06E0CA545B1CDAB28C54521CD3B2CA
:1045A000401C0278002AF5D170BD01004FF00000D8
:1045B00004D0012901D0022901D003207047012035
:1045C000704778B10023C0F8B832C0F8C432C0F8E0
:1045D000D03209B1C0F8B412012180F89C120270E7
:1045E00000F0CCB80320704710B5D0F8C802FDF732
:1045F000ECF9BDE81040FFF7D8BF10B5D0F8C802FD
:10460000FDF7BDF9BDE81040FFF7CFBF2DE9F04140
:1046100017460446002521B194F89C02032842D095
:104620004CE0D4F8941204F11400022935D1D0E9F9
:1046300002639E4206D9F21A826039462046FFF78D
:104640003FFE0FE0B34214D14068984211D3D4F832
:10465000981288420DD2002211462046FFF730FE04
:10466000C4F8985200231A461946204600F0FAF87A
:1046700013E094F89C02032808D1D4F8B802C1686A
:1046800021B1C4F8D452C168204688478021204611
:1046900000F072F92046FFF735FE94F8A00268B1E9
:1046A00084F8A0520AE0D4F8B802426932B1C4F8E2
:1046B000D452426920469047002800D10020BDE82E
:1046C000F08170B513460446002221B194F89C0293
:1046D000032830D03AE0D4F8941204F5AA700329E4
:1046E00034D1D0E902518D420AD96A1A8260084653
:1046F000824200D3024619462046FFF7D9FD25E045
:1047000094F8AA0210F01F0003D0012802D002285A
:1047100000D0002294F89C02032808D1D4F8B802F3
:10472000016921B1C4F8D422016920468847204696
:10473000FFF700FE0AE0D4F8B802836933B1C4F889
:10474000D422826920469047002800D1002070BD05
:104750000020704710B50024012180F89C12D0F889
:10476000B82222B152680179904700B10324204653
:1047700010BDD0F8C802FDF756B9000010B5017899
:1047800039BB15490222C1F80805C0F8C8124FF01C
:10479000A0400860042048600020C1E90320C1E96E
:1047A000062008624862C86208630846FDF7AAFC52
:1047B00008B1FCF718FA80210748FDF790F840226D
:1047C00000210548FDF78FF8802201210248FDF7FE
:1047D0008AF8002010BD0000241D00200A0601F008
:1047E0007F01D0F8C80201EBC10100EB810002D5C6
:1047F00090F83E00704790F87E02704710B5D0F8F0
:10480000D42200EB8202D2F8B82222B190F89C3276
:10481000032B02D004E0032010BD126A02B19047BE
:10482000002010BD10B5D0F8D42200EB8202D2F8DF
:10483000B82222B190F89C32032B02D004E003206E
:1048400010BD526A02B19047002010BD10B51C4641
:104850001346D0F8C8022246FDF7EEF8BDE8104036
:10486000FFF7A3BE10B5D0F8C802FDF715F9BDE8F3
:104870001040FFF79ABE2DE9F041002601250446BD
:1048800080F89C52C4F894626660C4F8A46280F810
:10489000A062D0F8B80230B1426822B100212046AF
:1048A000904700B103260022402311462046FFF71F
:1048B000CDFF4027A4F864513B46002280212046CA
:1048C000C4F86071FFF7C2FFA58430462762BDE8D7
:1048D000F08190F89C12042903D190F89D1280F881
:1048E0009C120020704710B590F89C12032905D146
:1048F000D0F8B81211B1C96901B18847002010BDC4
:1049000001740020704710B5D0F8C802FDF7CCFC48
:10491000BDE81040FFF749BE70B5044600F2AA207A
:10492000054600F04DF80120C4F89402B4F8B00236
:10493000C4F8980294F8AA0210F01F010AD00129C5
:104940000ED0022912D000F080012046BDE8704050
:1049500000F012B829462046BDE8704000F0CCB8FF
:1049600029462046BDE8704000F00CBA2946204692
:10497000BDE8704000F056B910B5D0F8C802FDF798
:10498000AFF8BDE81040FFF710BE10B5D0F8C80270
:10499000FDF7A5FCBDE81040FFF707BE90F89C129C
:1049A00080F89D12042180F89C120020704710B5F9
:1049B000D0F8C802FDF7CEF8BDE81040FFF7F5BD0E
:1049C00070B5054611F8010B2870087868704C1C0A
:1049D0002046FEF75EFF6880A41C2046FEF759FFC4
:1049E000A880A01CFEF755FFE88070BD38B50446CE
:1049F0000020ADF80000A1B1C4F8B812D4F8D40278
:104A000004EB8000D0F8B802C16A19B16846884743
:104A1000C4F8D002D4F8D802401CC4F8D802002050
:104A200038BD032038BD02460020D2F8B832002B32
:104A300002D01B6810461847704700002DE9F0416E
:104A400088462B4E8978002504463170012906D905
:104A500041462046FFF73CFC0320BDE8F08194F876
:104A60009C02022702280CD003281DD04146204674
:104A7000FFF72EFC31782046FFF70CFC0325284673
:104A8000EBE789B320466160FFF7CDFF050004D056
:104A900041462046FFF71CFC1DE02046FFF74AFC7C
:104AA000032084F89C02EAE7C1B1606888421BD009
:104AB000C1B22046FFF7EEFB317820466160FFF778
:104AC000B2FF050010D041462046FFF701FC2179D6
:104AD0002046FFF7DFFB84F89C72D0E784F89C72D5
:104AE00020466160FFF7D6FB2046FFF723FCC6E7B0
:104AF000E0000020FFF749BF2DE9F0410A780025CA
:104B000012F060020CD0202A01D0402A7DD1D0F8CA
:104B1000D42200EB8202D2F8B8229268904731E0AA
:104B20004B78002201260A2B6FD2DFE803F04166A2
:104B30006E586E08056E2D29FFF77CFC67E0044671
:104B40008888D8B9C888C8B94888802816D200F0A3
:104B50007F0794F89C02032810D084F89E7239468F
:104B60002046FFF7D0FE2046FFF7E4FB1FB10220EE
:104B700084F89C024BE084F89C6248E0204644E0C4
:104B8000FFF75CFF054642E0CB88012B3DD190F852
:104B90009C32012B04D0022B02D0032B35D104E030
:104BA0008260012200F1080116E00122011D13E0DC
:104BB00090F89C22012A03D0022A01D0032A24D192
:104BC000CA88022A21D1C660D0F8A41209B10321F3
:104BD000C160022200F10C01FFF79FFB17E04A8839
:104BE000012A02D0022A03D00FE0C0F8A46216E026
:104BF0008988090A80F8A01211E090F89C32012BF4
:104C000008D0022B06D0032B04D0FFF761FB284607
:104C1000BDE8F08149880129F9D1C0F8A422FFF745
:104C200089FBF4E72DE9F041054608780C790E463A
:104C30004FF0000810F060000BD0202801D0402871
:104C40006AD121462846FFF72FFBFF2800D0D8B3B2
:104C500095E07078C8B3012824D003285CD195F87A
:104C60009C02022802D0032856D10CE0002C53D01D
:104C7000802C51D021462846FFF77EFE8021284611
:104C8000FFF77AFE7BE0708840B93CB1802C05D0FC
:104C9000C88818B921462846FFF76EFE2846FFF758
:104CA00049FB6CE095F89C020228DFD0032863D111
:104CB000708880BB600603D021462846FFF794FC2D
:104CC0002846FFF737FBBCE700E00AE0C5F8D4024E
:104CD000D5F8B8028268F2B131462846904780463E
:104CE0004DE095F89C020027022802D0032843D10A
:104CF00013E00CB1802C3FD1200604F07F0000EBC4
:104D0000800005EB800101D5143101E001F5AA71A5
:104D100002220F602CE032E02EE0200604F00F00AB
:104D200000EB800005EB800009D5808C20B304F0F7
:104D30007F0000EB800005EB800614360AE0B0F837
:104D40006401C8B104F07F0000EB800005EB800631
:104D500006F5AA764CB1802C07D021462846FFF7ED
:104D60003DFD10B10120306000E037600222314685
:104D70002846FFF7D2FA02E02846FFF7A9FA404694
:104D8000BDE8F08170B50546087800240E4610F0A5
:104D9000600003D0202801D0402827D195F89C023C
:104DA000012803D0022801D003281FD1B088C1B246
:104DB00001291AD8C1B22846FFF778FAFF280CD08B
:104DC00058B9D5F8B8128A683AB1C5F8D4028A68D9
:104DD000314628469047044600E00324F0882043EB
:104DE00007D12846FFF7A6FA03E031462846FFF729
:104DF0006FFA204670BD704700487047041B0020C2
:104E000070B50A78012302F00F054E78AB401B4CB9
:104E1000D0F81C58012E17D045EA0343C0F81C38BF
:104E200000EB4210D0F8002B12040BD4D0F8002B6A
:104E30008B890979C3F30A031A4344EA81410A437F
:104E4000C0F8002B002070BD9BB21D43C0F81C5859
:104E500000EB4210D0F800391B04F3D4D0F800392D
:104E60008D890979C5F30A0589042B4341EA8251EA
:104E70000B432343C0F80039E4E700000080001032
:104E8000D0F800196FF30A01C0F80019D0F804181F
:104E900041F48071C0F804180020704770B50446D2
:104EA00006990A9E049D0D98012916D0E06840F0ED
:104EB0004000E060204600F02BF8A16B1EB321F407
:104EC0008031A163012D07D1A16841F00601A160E5
:104ED000A16841F02001A16070BDA16B21F4803177
:104EE000A163E168094A1140E160E16821F44011E1
:104EF000E160012803D1E06840F48010E0602046C2
:104F000000F006F8DEE741F48031DAE7BFFFBDFFCD
:104F100008B500220D490092009B5B1C00938B4258
:104F20000CD80369002BF7DA0092026942F0010203
:104F30000261009A521C00928A4201D9032008BDE6
:104F40000269D207F5D1002008BD0000400D030022
:104F500030B54C780A78012300EB4212012C2CD09A
:104F6000D2F8004B002C0BDAD2F8004B44F000646E
:104F7000C2F8004BD2F8004B44F08044C2F8004B1A
:104F8000D0F83C580C7804F00F0403FA04F425EA36
:104F90000444C0F83C48D0F81C48097801F00F01DF
:104FA0008B4024EA0341C0F81C18D2F8000B1949C1
:104FB0000840C2F8000B002030BDD2F80049002C98
:104FC0000BDAD2F8004944F00064C2F80049D2F884
:104FD000004944F08044C2F80049D0F83C480D78BC
:104FE00005F00F0503FA05F5ADB2AC43C0F83C4837
:104FF000D0F81C48097801F00F018B4099B28C431E
:10500000C0F81C48D2F8000903490840C2F800095A
:10501000D1E700000078F3EF007833ECD0F8001E01
:1050200021F00301C0F8001ED0F8041821F002019D
:10503000C0F8041800207047D0F8001E21F00301CA
:10504000C0F8001ED0F8041841F00201C0F804189E
:10505000002070472DE9F04F00250E460446DDF88C
:105060002CC0DDF824B0109F2846294604EB8002AE
:10507000C2F80411401C0F28F8D32046C7B1806B3A
:1050800020F40012A263A06B40F40022A263084641
:105090008846C4F8000ED4F800182046C4F800185A
:1050A000BCF1010F16D0D0F8001841F0030116E052
:1050B000D0F8040840F00202C4F80428A06B40F4C1
:1050C0000012A263A06B20F40022A263A06B20F464
:1050D0008022DBE7D0F800180BB141F00101C0F8E5
:1050E0000018102100F0EEFA00B10125204600F072
:1050F000CBFA00B101254046C4F81088C4F81488E2
:10510000C4F81C8800214FF000694FF0904A4FF618
:105110007F3314E004EB4112D2F800C9BCF1000F58
:1051200006DA11B1C2F800A904E0C4F8009901E060
:10513000C2F80009C2F81009C2F80839491C8E42A9
:10514000E8D8002115E000BF04EB4112D2F800CBF3
:10515000BCF1000F06DA11B1C2F800AB04E0C4F8EC
:10516000009B01E0C2F8000BC2F8100BC2F8083B2C
:10517000491C8E42E8D8D4F8101821F48072C4F883
:105180001028A0616FF080406061BBF1000F03D177
:10519000A06940F01000A061A06909490843A0611E
:1051A0000C9818B1A06940F00800A061012F03D14C
:1051B000A06904490843A0612846BDE8F08F0000BB
:1051C00000383C8004000040816821F001018160CA
:1051D0000020704770B50D784E78444CEBB200EB70
:1051E0004313012E21D0D3F8100B6FF31200C3F834
:1051F000100BD3F8100B2040C3F8100B886908B1CE
:10520000C8688861C868C861D3F8100B40F40020F2
:10521000C3F8100BD3F8100BCC69C4F3120420436D
:10522000C3F8100B012A55D058E08E69002ED3F830
:10523000106932D06FF31206C3F81069D3F8106901
:105240002640C3F810698E69CC68A64200D98C61EB
:10525000D3F8104944F40024C3F81049D3F8104996
:105260008E69C6F312063443C3F81049012A22D0CE
:1052700000EB4512D2F8003943F00443C2F800397C
:105280008A6932B3D0F83428097801F00F0301217C
:1052900099400A43C0F8342826E02640C3F8106934
:1052A000D3F8104944F40024C3F81049D3F8104946
:1052B0006FF31204D8E7496919B100EB4512C2F83F
:1052C000141900EB4510D0F8001941F00441C0F862
:1052D000001909E0086908B1C3F8140BD3F8000BF2
:1052E00040F00440C3F8000B002070BDFFFF07E052
:1052F00010B5036C134CA34203D9D0F8003B002B2C
:105300001EDB0023C0F8103BD0F8103B43F4002311
:10531000C0F8103BD0F8103B43F01803C0F8103B26
:10532000D0F8103B43F0C043C0F8103B012907D12F
:10533000C0F8142BD0F8001B41F08021C0F8001BEE
:10534000002010BD0A30544F4A780B78012A00EB38
:1053500043100BD0D0F8002B22F40012C0F8002B21
:105360000979032914D0022912D017E0D0F80029B6
:1053700022F40012C0F800290979032901D002297A
:105380000CD1D0F8001941F08051C0F8001905E0A7
:10539000D0F8001B41F08051C0F8001B002070477E
:1053A0000A784B78D1B200EB4110012B12D0D0F823
:1053B000001B002906DB2AB1D0F8001B21F0804138
:1053C000C0F8001BD0F8001B41F40011C0F8001B0E
:1053D00000207047D0F80019002906DB2AB1D0F868
:1053E000001921F08041C0F80019D0F8001941F4EB
:1053F0000011C0F80019EBE7F8B50C784F78764D3E
:10540000E3B26FF0604600EB4313012F27D0D3F8CF
:10541000104B6FF31204C3F8104BD3F8104B2C4011
:10542000C3F8104B8D69002D75D0CC6825446D1ED6
:10543000B5FBF4F5ADB26C43CC61D3F8104B06EA82
:10544000C5452C43C3F8104BD3F8104BCD69C5F3B9
:1054500012052C43C3F8104B012A71D0A4E08F69C8
:105460001FB3D3F810796FF31207C3F81079D3F88C
:1054700010792F40C3F810798F69CD682F447F1EB3
:10548000B7FBF5F506EAC545D3F810693543C3F80F
:105490001059D3F810598E69C6F312063543C3F874
:1054A00010590D79012D10D01BE0D3F810692E4052
:1054B000C3F81069D3F8105945F40025C3F8105902
:1054C000D3F810596FF3120509E0D3F8105925F0FD
:1054D000C045C3F81059D3F8105945F00055C3F82A
:1054E0001059012A18D000EB4413D3F8004944F0B6
:1054F0000444C3F800490C79012C2FD08A6962B3A7
:10550000D0F83428097801F00F03012199400A43AB
:10551000C0F834285EE036E04A691AB100EB441363
:10552000C3F81429097901290FD1D0F80818C90541
:1055300000EB4411D1F8002903D442F0005202E0FC
:105540002EE042F08052C1F8002900EB4410D0F860
:10555000001941F00441C0F800193BE0D0F80848B8
:10556000E405D3F8004902D444F0005401E044F0CB
:105570008054C3F8004900920A8B93B20A780969F3
:1055800000F0D0F926E0D3F8104BCD68C5F3120532
:105590002C43C3F8104BD3F8104B44F4002459E7C4
:1055A0000A690AB1C3F8142B097901290CD1D0F882
:1055B0000808C005D3F8000B02D440F0005001E009
:1055C00040F08050C3F8000BD3F8000B40F00440CB
:1055D000C3F8000B0020F8BDFFFF07E038B500223C
:1055E000009213464D780A7842F2107400EB421292
:1055F000012D19D0D2F8005B002D3CDAD2F8005B07
:1056000045F00065C2F8005B0A7800EB4212D2F860
:10561000005B45F08045C2F8005B009A521C009286
:10562000A24221D9012326E0D2F80059002D22DA26
:10563000D2F8005945F00065C2F800590A7800EB2D
:105640004212D2F8005945F08045C2F80059009A3C
:10565000521C0092A242E5D80A7800EB4212D2F81E
:105660000029002AF3DB06E00A7800EB4212D2F8A8
:10567000002B002AD1DB184638BD816841F00101BA
:10568000816000207047000008B500220C4900929C
:10569000009B5B1C00938B420AD80369002BF7DA4E
:1056A000009210220261009A521C00928A4201D993
:1056B000032008BD0269D206F5D4002008BD000011
:1056C000400D030018B500230D4A0093009C641C94
:1056D000009494420CD80469002CF7DA009320233C
:1056E00043EA811101610099491C0091914201D95D
:1056F000032018BD01698906F5D4002018BD0000FB
:10570000400D0300D0F8080810F0060004D002286D
:1057100003D0062801D00F2070470220704740694F
:1057200000F001007047D0F81818D0F81C080840A5
:1057300080B27047D0F81818D0F81C080840000C48
:10574000704710B5D0F81038D0F8342801F00F04A5
:1057500000EB4110E24002F00102D0F8080943EAF0
:10576000C212104010BD00EB4111D1F8081BD0F857
:10577000140808407047416980690840704730B597
:1057800003460846940802F00301002203F5805303
:1057900003E01D6840F8045B521CA242F9D30029C3
:1057A0000BD01C680022D50024FA05F3491E521CB8
:1057B000090400F8013B090CF5D130BD70B5044671
:1057C000C068002520F0C040E060012901D079B117
:1057D00020E0E06840F00050E0600120FBF79EFD13
:1057E00060696D1C10F0010F10D1322DF5D30DE062
:1057F000E06840F08040E0600120FBF78FFD6069C9
:105800006D1C10F0010F01D0322DF5D3322D01D0D7
:10581000002070BD012070BDD0F8002822F4FE6287
:10582000C0F80028D0F800284FF4FE6303EA011105
:105830000A43C0F80028002070470000022A3ED129
:10584000264A274B0A449A4201D20F2138E0254AC2
:10585000254B0A449A4201D20E2131E0234A244BBF
:105860000A449A4201D20D212AE0224A224B0A44DC
:105870009A4201D20C2123E0204A214B0A449A4249
:1058800001D20B211CE01F4A1F4B0A449A4201D24D
:105890000A2115E01D4A1E4B0A449A420FD31D4AA5
:1058A0001D4B0A449A4201D2082109E01B4A1144C7
:1058B0001B4A914201D2072102E0062100E00921A2
:1058C000C26822F47052C260C2684FF4705303EA97
:1058D00081210A43C260002070470000405327FF27
:1058E00000350C00401E1BFF40420F0000DC0BFF88
:1058F000804F1200808CF9FE20D6130060B6E5FEC2
:1059000060E3160000D3CEFE40771B00C05BB3FE01
:10591000C091210000CA91FE20753800E05459FE64
:10592000E09C410010B5029C74B9DB1C9C0800EBA4
:105930000230002300F5805004E000BF51F8042B32
:1059400002605B1CA342F9D3002010BDFEE70907EB
:10595000090E002804DB00F1E02080F800147047F5
:1059600000F00F0000F1E02080F8141D704730387F
:105970000A2801D2012070470020704744488AB0AD
:10598000016841F470010160BFF34F8FBFF36F8F67
:10599000FBF7E2FEFDF79EFFFDF796FD3D48002474
:1059A000016841F400110160016801F400110091E7
:1059B000016841F4800101600068224600F4800023
:1059C000009005210E20FBF757FF0E20FBF746FF46
:1059D000002205213820FBF74FFF3820FBF73EFF60
:1059E0002E482D4901602E49C0E901144FF4804131
:1059F000C0E9034144618461C4610462FBF7ACFD0A
:105A000008B172B6FEE725482649BC3001604FF464
:105A1000E131C0E901140C21C460C0E90441846192
:105A2000C461FDF75FFC08B172B6FEE7FDF706FD45
:105A3000FDF78AFDFDF7C8FDFDF7FCFD17480322C1
:105A400019494838FBF7F2F90525CDE900544FF420
:105A500080760023324615A1164800F071FCCDE98E
:105A600000540023324614A1154800F069FC00F0F0
:105A700081FB1C22134902A8FAF72BFE002102A881
:105A800000F036F81049086000F02DF8FEE700003D
:105A900088ED00E03038024000540040CC01002086
:105AA000A086010000480040700100205461736B23
:105AB00031000000CD3A00085461736B416463000B
:105AC000293B00088C6500080000002001460020EA
:105AD000842900D0C81C704710B500B9012000F01F
